:020000040800F2
:10700000883B002061710008D9B40008DBB4000897
:10701000DFB40008E3B40008E7B400080000000093
:10702000000000000000000000000000EBB40008B9
:10703000EDB400080000000077710008EFB400080C
:107040007B7100087B7100087B7100087B71000870
:107050007B7100087B7100087B7100087B71000860
:107060007B7100087B7100087B7100087B71000850
:107070007B7100087B7100087B7100087B71000840
:107080007B7100087B7100087B7100087B71000830
:107090007B7100087B7100087B7100087B71000820
:1070A0007B7100087B7100087B7100087B71000810
:1070B000F1B400087B7100087B7100087B71000847
:1070C0007B7100087B7100087B7100087B710008F0
:1070D0007B710008FFB40008CBB50008CDB60008EE
:1070E0007B7100087B7100087B7100087B710008D0
:1070F0007B7100087B7100087B7100087B710008C0
:107100007B7100087B7100087B7100087B710008AF
:107110007B7100087B71000821B800087B710008B2
:107120007B7100087B7100087B7100087B7100088F
:107130007B7100087B7100087B7100087B7100087F
:107140007B7100087B710008DFF810D016F048FB57
:10715000004800477DB80008AFF30080883B00205E
:107160000648804706480047FEE7FEE7FEE7FEE7E1
:10717000FEE7FEE7FEE7FEE7FEE7FEE787720008B0
:107180004971000830B50020002100230022A04CE6
:10719000246844F480349E4D2C6000BF9C4C2468CD
:1071A000C4F340425B1C12B9B3F5005FF6D1984CB2
:1071B0002468C4F340421AB9964C974D2C6030BDF8
:1071C000934CE46944F08054914DEC61934C2468F5
:1071D00004F4C064B4F5806F05D1904C246844F485
:1071E000C0648E4D2C608E4C246824F003048C4DBA
:1071F0002C602C46246844F003042C60844C6468A2
:10720000834D6C602C46646844F400546C602C46DA
:10721000646844F4A0646C602C466468814D2C4022
:107220007B4D6C602C46246C24F003042C642C46AB
:10723000606840F48030216C40F4003000BF7A4C2C
:1072400020432C4660602164246844F080742C60E4
:1072500000BF6F4C246804F00074002CF9D06C4C13
:10726000646824F003046A4D6C602C46646844F042
:1072700003046C6000BF664C646804F00C040C2CC2
:10728000F9D100BF9BE710B56848006840F4700072
:10729000664908605E48406A40F004005C49486204
:1072A00008464068624908405949486008460068F5
:1072B00060490840564908600846006820F480206C
:1072C0000860084640685C49084051494860002011
:1072D000C8624FF460500863002048630864574850
:1072E00088600846C06940F08050C8610846C0699F
:1072F00020F08050C8614A48006840F0900048493A
:1073000008600846006800F4807020B108460068F4
:1073100020F400700860FFF735FF49484349803981
:10732000086010BD70B50021002000230024002259
:10733000374D6D6805F00C01354D6D6AC5F30212CD
:1073400031B104290AD008290CD00C294DD10DE007
:107350003C4D55F82250304E35604CE03A4D2E4EA3
:10736000356048E0394D2C4E356044E0284D6D685D
:10737000374E05EA0600264D6D6805F48033244D2E
:107380002D6C05F0020400F000651DB9022505EB27
:10739000904004E04FF4F875C5EB9045681C73B954
:1073A0001B4D2D6C05F0020525B1284D45431A4EA5
:1073B000356012E0244D4543174E35600DE0144D05
:1073C0006D6805F4003525B1124D4543124E356008
:1073D00003E01E4D4543104E3560022C04D10E4D86
:1073E0002D686D080C4E356005E0164D55F822509D
:1073F000094E356000BF00BF054D6D68C5F303152C
:10740000144E715D044D2D68CD40034E356070BD46
:107410000010024000093D00000000200070004004
:1074200000200240FFFFC0F70000280888ED00E0C0
:1074300000C0FFF8FFFFF6FEFFFF00070080BF045B
:107440000070000890D801080024F40000127A00AF
:1074500000003C0878D8010867490143674A116079
:10746000704770B5002100230F22C47804B3634C29
:10747000246804F4E064C4F5E064210AC1F1040363
:10748000CA40447804FA03F1847814402143090186
:107490005B4C0678A155047804F01F050124AC402C
:1074A00005786D11AD0005F1E025C5F8004109E052
:1074B000047804F01F050124AC40524D0678761183
:1074C00045F8264070BD504A0A4002434B4B1B1FF3
:1074D0001A60704739B1494A121D12680243474B7E
:1074E0001B1D1A6006E0454A121D12688243434B79
:1074F0001B1D1A607047042808D14FF0E02109696C
:1075000041F004014FF0E022116107E04FF0E0216B
:10751000096921F004014FF0E0221161704700BFBA
:1075200000BF00BFBFF34F8F00BF00BF00BF00BF51
:1075300000BF00BFBFF36F8F00BF00BF00BF40F0B0
:1075400001012E4A883211602C491831096841F432
:1075500080312A4A18321160704700BF00BF00BF57
:10756000BFF34F8F00BF00BF00BF00BF00BF00BF11
:10757000BFF36F8F00BF00BF00BF20481830006806
:1075800020F480301D49183108601C48883000689C
:1075900020F0010019498831086070474178174A86
:1075A0008C3211600178F9B1121D41681160017BC4
:1075B0000907C27A41EA0261827A41EAC241427B0A
:1075C00041EA8241827B41EA4241C27B41EA024177
:1075D000427A41EA0221027A41EA420102781143E9
:1075E000064A9432116005E00021044A903211608D
:1075F000121D1160704700000000FA050CED00E05C
:1076000000E400E080E100E080FFFF1F2DE9F04191
:1076100004460025002600274FF6FF78FE488442E6
:1076200008D10121042000F0F7FD0021042000F022
:10763000F3FD25E0F948844208D10121082000F03B
:10764000EBFD0021082000F0E7FD19E0F44884423A
:1076500008D10121102000F0DFFD0021102000F0F2
:10766000DBFD0DE0EF48844208D10121202000F02D
:10767000D3FD0021202000F0CFFD01E0BDE8F08126
:1076800069E00120A84000EA0806002E62D0E64822
:10769000A90850F82170A807010F0F208840074063
:1076A000DD48844201D100200AE0DC48844201D157
:1076B000012005E0DA48844201D1022000E00320E5
:1076C000A907090F8840B84221D1D8480068B043C3
:1076D000D6490860081D0068B043091D0860081DF0
:1076E0000068B043091D0860081D0068B043091D0B
:1076F0000860A807010F0F2000FA01F7CA48A9087F
:1077000050F82100B843C849AA0841F8220020686F
:107710006A00032191408843206005F0080038B1D9
:10772000606A6907CA0E0F2191400843606206E053
:10773000206A6907CA0E0F219140084320626168E0
:107740000120A84081436160E0686A000321914004
:107750008843E0606D1C28FA05F0002891D100BF35
:107760008CE710B50121084600F056FD00210120EC
:1077700000F052FD10BDF0B50346002500200024A6
:1077800000220026E3E00F884FF0010C0CFA02FC07
:1077900007EA0C06002E6FD055008F68022F07D025
:1077A0008F68122F04D08F6817B18F68032F25D1EF
:1077B00002F008078FB1586A57074FEAD76C0F27B6
:1077C00007FA0CF7B8434FEA427C4FEADC6CCF680B
:1077D00007FA0CF73843586210E0186A57074FEA67
:1077E000D76C0F2707FA0CF7B8434FEA427C4FEAF1
:1077F000DC6CCF6807FA0CF7384318621C680F7A04
:1078000007F00F000327AF40BC4300FA05F73C43E5
:107810001C60DC680F7907F003000327AF40BC430E
:1078200000FA05F73C43DC600F7A07F003076FB1FD
:107830008F68032F0AD0DC6A8F7807F003000327D4
:10784000AF40BC4300FA05F73C43DC62986801276F
:107850009740B843CF7807F00107974038439860C6
:107860000F79022F09D19F6A4FF0010C0CFA02FC2C
:1078700047EA0C079F620BE068E00F79012F07D100
:107880009F694FF0010C0CFA02FC47EA0C079F615C
:107890008F68012F08D08F68022F05D08F68112FB5
:1078A00002D08F68122F09D1586801279740B8433A
:1078B0000F7AC7F300179740384358608F6807F076
:1078C0008057002F42D0594F386801279740B8435E
:1078D0008F6807F48037B7F5803F02D101279740C2
:1078E0003843524F38603F1D386801279740B843EE
:1078F0008F6807F40037B7F5003F02D101279740A2
:1079000038434A4F3F1D38603F1D38680127974074
:10791000B8438F6807F48017B7F5801F02D101279D
:1079200097403843414F083738603F1D386801277A
:107930009740B8438F6807F40017B7F5001F02D1CE
:10794000012797403843394F0C373860521C0F8855
:107950001741002F7FF417AFF0BD4FF6FF71018084
:107960000021C17081600F21C1600021017181700F
:1079700070470246002013690B400BB1012000E064
:10798000002070470146086980B270470246002017
:1079900053690B400BB1012000E000207047014605
:1079A000486980B270478161704781617047816228
:1079B00070470AB1816100E08162704741617047A0
:1079C0004FF480320A43C261C161C261C269C269B7
:1079D0007047F0B503461546002200200BB90E4E45
:1079E00008E0012B01D10D4E04E0022B01D10C4E19
:1079F00000E00C4E344601F00806CEB101F007025B
:107A0000606A97000F26BE40B043960005FA06F65E
:107A10003043606218E0000000080140000C0140A3
:107A20000010014000140140040001400004014026
:107A300001F00702206A97000F26BE40B04396006F
:107A400005FA06F630432062F0BD70B5024600200C
:107A500000240AB93E4D08E0012A01D13D4D04E061
:107A6000022A01D13C4D00E03C4D2B4601F00805B7
:107A700055B101F00704586AA6000F25B540A84388
:107A800040F00300586209E001F00704186AA600FC
:107A90000F25B540A84340F00300186270BD30497F
:107AA000C861704730B502462E4B8C1053F8243015
:107AB0008C07250F0324AC40A3432A4C8D1044F8B7
:107AC000253023468C1053F824308C07240F02FAFB
:107AD00004F41C43234B8D1043F8254030BD0A4667
:107AE0000021204B1B1F196801238340994302FA90
:107AF00000F319431B4B1B1F1960704702460020FF
:107B0000092A11D1174B1B1F186820F40070112986
:107B100002D140F4007003E020F0F00040EA0110D0
:107B2000104B1B1F186011E0082A0FD10D4B1B1FB3
:107B3000186820F48070102902D140F4807002E0AF
:107B400020F00F000843074B1B1F18607047000010
:107B500000080140000C01400010014000140140E9
:107B600000002042040001400020F949496A41F028
:107B70000401F74A516211464968F64A1140F44A35
:107B8000516011460868F44908401146086020F425
:107B9000802008604968F14A1140ED4A51604FF475
:107BA0006051D16211630021516311644FF41F01D0
:107BB0009160704701460020E54A106820F480304B
:107BC000106020F480201060B1F5803F03D0B1F543
:107BD000802F0ED106E0DE4A126842F48032DC4B80
:107BE0001A6007E0DA4A126842F4A022D84B1A6001
:107BF00000E000BF00BF704710B50146002200231F
:107C000000204A11012A02D1D14C236806E0022A41
:107C100002D1CF4C236A01E0CD4C636A01F01F0210
:107C2000012494401C400CB1012000E0002010BD54
:107C300038B5002000900024002500BF3120FFF758
:107C4000DBFF05460098401C00900098B0F5005FEF
:107C500001D0002DF2D03120FFF7CEFF08B1012472
:107C600000E00024204638BDB949096821F001012F
:107C7000B74A1160012805D11146096841F0010198
:107C8000116000E000BF00BF704738B500200090D1
:107C90000024002500BF2120FFF7AEFF0546009815
:107CA000401C00900098B0F5A06F01D0002DF2D0DC
:107CB0002120FFF7A1FF08B1012400E000242046A5
:107CC00038BD01460020A24A106820F07C0040EA3E
:107CD000810010607047A2490860704710B50246E5
:107CE00000209B4B586A20F07000084358623AB15C
:107CF000042A0CD15B6A43F00403954C636207E0ED
:107D0000934B5B6A23F00403914C636200E000BF75
:107D100000BF10BD38B5002000900024002500BF32
:107D20006320FFF769FF05460098401C009000980B
:107D3000B0F5A06F01D0002DF2D06320FFF75CFFFB
:107D400008B1012400E00024204638BD014600208F
:107D50007F4A506A20F4FF0040EAC1305062704709
:107D600080490860704730B50B4614460021002258
:107D7000774D69682A6C7C4D294022F0030208B1D6
:107D8000012804D1194340EA04052A4303E040EAEC
:107D90000305294322436E4D69602A6430BD704952
:107DA0000866704701460020694A506820F00300C9
:107DB0000843506070476648406800F00C00704708
:107DC00001460020624A506820F0F00008435060ED
:107DD0007047014600205E4A506820F4E060084386
:107DE0005060704701460020594A506820F46050A6
:107DF00040EAC1005060704731B1554A926842EA8A
:107E00000022534B9A6005E0514A926822EA002210
:107E10004F4B9A6070475249D83108604108504A28
:107E2000C2F8DC10704701460020494AD06A20F0B1
:107E300000500843D062704701460020444AD06A8F
:107E400020F0F8500843D062704702460020404BB3
:107E5000D86A20F4003020F4F83010430843D86288
:107E60007047024600203A4BD86A20F4F87009B1F6
:107E7000104302E0104320F48070354BD862704705
:107E800001460020324AD06A20F00F000843D06239
:107E90007047024600202E4B186B20F4003020F46F
:107EA0007840104308431863704730B12849096B84
:107EB00041F48021264A116305E02549096B21F42C
:107EC0008021234A1163704710B502460020204BE1
:107ED000186B20F400701043186329B11B6B43F03A
:107EE00080031B4C236305E0194B1B6B23F08003BD
:107EF000174C236310BD01460020154A106B20F477
:107F0000807008431063704729B1114A526B0243D5
:107F10000F4B5A6304E00E4A526B82430C4B5A6378
:107F2000704731B10A4A526B42EA0012084B5A6359
:107F300005E0074A526B22EA0012054B5A6370476C
:107F4000A1B1034AD2690243014BDA6113E0000098
:107F50000010024000C0FFF8FEFFF6FEFFFF00F732
:107F60000000424288044242FFFFC0F7D84AD2696B
:107F70008243D74BDA61704730B5054600240121B2
:107F80000807FFF7DDFFD348006840F48070D1494F
:107F90000860CF48446B24F007042C43446330BD91
:107FA000CB48406B00F00700704701460020C84AEC
:107FB000506B20F01800084350637047C448406B72
:107FC00000F01800704729B1C14A526C0243C04BFF
:107FD0005A6404E0BE4A526C8243BD4B5A647047F7
:107FE00029B1BB4A526C0243B94B5A6404E0B84A07
:107FF000526C8243B64B5A647047B549496C014391
:10800000B34A5164704710B5044601210807FFF7D1
:1080100097FFB048006840F48070AE490860AC48F3
:10802000006A20F00D00AA490862012C02D0042C3D
:108030000ED106E0A648006A40F00100A44908629B
:1080400007E0A348006A40F00500A149086200E08B
:1080500000BF00BF10BDA049086070470146002066
:108060009B4A106A20F44070084310627047984899
:10807000006A00F4407070479749443908607047BF
:1080800001460020924A106A20F020000843106246
:1080900070478F48006A00F020007047F0B500215B
:1080A00000BF0023002600240025894F7F68DFF8E9
:1080B0002CC207EA0C03864F7F6807F48036844F92
:1080C0007F6AC7F3021503F000671FB9022707EBA9
:1080D000934304E04FF4F877C7EB93477B1C66B9F2
:1080E0007B4F3F6C07F001071FB17D4F03FB07F289
:1080F0000FE07C4F03FB07F20BE0754F7F6807F43E
:1081000000371FB1784F03FB07F202E0744F03FB07
:1081100007F26F4F3F6C07F0020707B152086C4F30
:108120007F6807F00C0131B1042909D008290AD071
:108130000C290DD10AE06D4F57F8257007600CE04F
:10814000684F076009E0664F076006E0026004E0E0
:10815000664F57F82570076000BF00BF5C4F7F680F
:1081600007F0F0010909624F7C5C0768E74047604F
:10817000574F7F6807F4E061090A5D4F7C5C4768F0
:10818000E7408760524F7F6807F46051C90A584F33
:108190007C5C4768E740C7604D4FFF6A07F00F01FE
:1081A000544F7C5C4768B7FBF4F74761484FFF6A60
:1081B00007F4F871090901F00F07DFF83CC13CF83A
:1081C0001740B2FBF4F70761F0BD29B1404A52698C
:1081D00002433F4B5A6104E03D4A526982433C4BA3
:1081E0005A61704729B13A4A92690243384B9A6101
:1081F00004E0374A92698243354B9A61704729B14E
:10820000334A926A0243324B9A6204E0304A926ADD
:1082100082432F4B9A62704729B12D4AD26802439C
:108220002B4BDA6004E02A4AD2688243284BDA609A
:10823000704729B1264A12690243254B1A6104E0AE
:10824000234A12698243224B1A61704722494039FE
:10825000086070472949C86470471F49743908602D
:10826000704700201A49096A01F0100109B1012084
:1082700000E00020704701460020154A506820F0B9
:10828000704008435060704701460020104A506813
:1082900020F0E06040EA01605060704700200C4927
:1082A000486A40F08070486220F0807048627047F1
:1082B00001460020064A92680A400AB1012000E007
:1082C00000207047024989680143014A9160704764
:1082D00000100240007000408004424200003C0850
:1082E00000127A000024F40000093D00ECD80108D7
:1082F000ACD80108BCD80108CCD801080000424223
:1083000010B50446E548844209D101218803FFF7EE
:1083100083FF00214FF48040FFF77EFF32E0E0480A
:10832000844209D101214804FFF783FF00214FF463
:108330000030FFF77EFF25E0DA48844209D10121B1
:108340008804FFF776FF00214FF48020FFF771FFCC
:1083500018E0D548844209D101214804FFF75CFFA9
:1083600000214FF40030FFF757FF0BE0CF48844265
:1083700008D101218804FFF74FFF00214FF480202E
:10838000FFF74AFF10BD2DE9F04786B005460F46BE
:108390000024A24600BF00BF0026B88900B100BF7C
:1083A0002E462C8A4CF6FF700440F88804432C8239
:1083B000AC894EF6F3100440B888398908437989AE
:1083C00008430443AC81AC8A4FF6FF400440B889AF
:1083D0000443AC826846FFF761FEB048864205D090
:1083E000B148864202D0B148864202D1DDF80CA0E5
:1083F00001E0DDF808A00AEBCA0000EB0A103968BA
:108400008900B0FBF1F86420B8FBF0F0040120090A
:10841000642101FB1089322000EB0910B0FBF1F060
:1084200000F00F0004432C8106B0BDE8F0874FF444
:108430001651016000218180C18001810C214181A0
:1084400000218181704710B502460020108A4FF24A
:10845000FF0318400B884C8823438C882343CC8827
:1084600023431843108210BD002101804180818088
:10847000C180704721B1828942F40052828104E0B8
:1084800082894DF6FF731A4082817047F0B503462A
:10849000002400260025002040F66A17B94200D1CA
:1084A00000BF1846C1F3421401F01F06012707FA66
:1084B00006F5012C01D10C3004E0022C01D1103062
:1084C00000E014301AB107682F43076002E0076824
:1084D000AF430760F0BD1AB1838A0B43838202E089
:1084E000838A8B4383827047028A4FF6F0731A4067
:1084F0000282028A0A430282704782894FF2FF7326
:108500001A40828182890A438281704721B182891F
:1085100042F00202828104E082894FF6FD731A4024
:1085200082817047028A4FF6DF731A400282028A04
:108530000A430282704721B1028A42F480420282D9
:1085400004E0028A4BF6FF731A4002827047C1F3BF
:1085500008028280704701468888C0F3080070478F
:10856000818941F0010181817047028BD2B202837F
:10857000028B42EA012202837047028B02F47F429F
:108580000283028B0A430283704721B1828A42F040
:108590002002828204E0828A4FF6DF731A408282D0
:1085A000704721B1828A42F01002828204E0828AFE
:1085B0004FF6EF731A408282704721B1828A42F0EF
:1085C0000802828204E0828A4FF6F7731A408282A0
:1085D0007047828A4FF6FB731A408282828A0A436E
:1085E0008282704721B1828A42F00202828204E0D4
:1085F000828A4FF6FD731A4082827047024600203D
:10860000B1F5007F00D100BF13880B400BB10120F2
:1086100000E00020704701F40072B2F5007F00D145
:1086200000BFCA430280704770B502460024002391
:108630000025002040F66A16B14200D100BFC1F308
:10864000421501F01F03012606FA03F3012D02D1A2
:108650009689334006E0022D02D1168A334001E0AC
:10866000968A33400C12012606FA04F41688344028
:1086700013B10CB1012000E0002070BD10B5002244
:10868000002340F66A14A14200D100BF0A1201245F
:108690009440A3B2DC43048010BD000000380140C8
:1086A0000044004000480040005001400054014098
:1086B00010B50446FE48844208D10121C014FFF7DA
:1086C000ABFD0021E014FFF7A7FD5EE0B4F1804FA1
:1086D00008D101210846FFF7ACFD00210120FFF77A
:1086E000A8FD52E0F348844208D101210220FFF79F
:1086F000A0FD00210220FFF79CFD46E0EE488442E9
:1087000008D101210420FFF794FD00210420FFF788
:1087100090FD3AE0E948844208D101210820FFF7A2
:1087200088FD00210820FFF784FD2EE0E448844204
:1087300008D101211020FFF77CFD00211020FFF758
:1087400078FD22E0DF48844208D101212020FFF794
:1087500070FD00212020FFF76CFD16E0DA4884420E
:1087600008D101214014FFF757FD00216014FFF7E5
:1087700053FD0AE0D548844207D101214015FFF797
:1087800058FD00216015FFF754FD10BD0A46002179
:108790000168C74B984211D0CB4B98420ED0B0F134
:1087A000804F0BD0C34B984208D0C34B984205D0A2
:1087B000C24B984202D0C54B984203D121F07001C0
:1087C00053881943BE4B984206D0BE4B984203D003
:1087D00021F44071D38819430160938883851388FD
:1087E0000385B34B984202D0B74B984201D1137A1C
:1087F0000386012383820168AD4B984211D0B24BAE
:1088000098420ED0B0F1804F0BD0AA4B984208D0BE
:10881000A94B984205D0A94B984202D0AB4B984245
:1088200006D1537A13B141F4006101E021F40061F3
:10883000A64B984214D1937A13B141F4805101E0D0
:1088400021F48051D37A13B141F4005101E021F4B5
:108850000051137B13B141F4804101E021F48041C8
:10886000934B98420ED0984B98420BD0B0F1804F6A
:1088700008D0904B984205D08F4B984202D0934B32
:10888000984206D1537B13B141F4004101E021F439
:10889000004101604168B0F1804F02D0864B9842A0
:1088A00006D1937B13B141F4807101E021F4807112
:1088B0004160704730B5002400220023056A25F08E
:1088C00001050562026A4368048B4FF68F752C40E0
:1088D0004FF6FC752C400D882C4322F002020D89C6
:1088E0002A434D882A43724DA84202D0764DA842B1
:1088F0000FD122F008024D892A4322F004028D880C
:108900002A4323F4807323F400738D892B43CD898C
:108910002B4343600483CD888586026230BD70B5E9
:10892000002400220023056A25F010050562026A72
:108930004368048B48F6FF752C404FF6FF452C40EA
:108940000D884FF6FF7606EA05252C4322F020021B
:108950000D8942EA05124D8842EA0512544DA8429B
:1089600002D0594DA84213D122F080024D8942EA2B
:10897000051222F040028D8842EA051223F480633A
:1089800023F400638D8943EA8503CD8943EA850397
:1089900043600483CD880587026270BD30B5002432
:1089A00000220023056A25F480750562026A436887
:1089B000848B4FF68F752C404FF6FC752C400D883C
:1089C0002C4322F400720D8942EA05224D8842EAC6
:1089D0000522374DA84202D03B4DA84213D122F4C4
:1089E00000624D8942EA052222F480628D8842EAC3
:1089F000052223F4805323F400538D8943EA0513A1
:108A0000CD8943EA051343608483CD88858702625C
:108A100030BD70B5002200230024056A25F480557E
:108A20000562036A4468828B48F6FF752A404FF658
:108A3000FF452A400D884FF6FF7606EA05252A43B2
:108A400023F400530D8943EA05334D8843EA053387
:108A5000174DA84202D01C4DA84204D124F48044F2
:108A60008D8944EA851444608283CD88A0F8405003
:108A7000036270BD30B5002400220023056A25F48E
:108A800080350562026A4368B0F854404FF68F752E
:108A90002C400D882C4322F400320D8942EA054215
:108AA0004D8842EA0542024DA84213D0064D0FE020
:108AB000002C01400004004000080040000C004071
:108AC000001000400014004000340140003C004011
:108AD000A84204D123F480338D8943EA05234360FF
:108AE000A0F85440CD88A0F85850026230BD70B54F
:108AF000002400220023056A25F480150562026A1D
:108B00004368B0F8544048F6FF752C400D884FF686
:108B1000FF7606EA05252C4322F400120D8942EA6D
:108B200005524D8842EA0552FB4DA84202D0FB4D4A
:108B3000A84204D123F480238D8943EA852343602E
:108B4000A0F85440CD88A0F85C50026270BD828BC2
:108B50004FF2FF331A408283828B4FF6FF7303EA92
:108B600001231A4382837047F0B50C461546002254
:108B700000210026076A27F480570762828B016A6A
:108B8000260340F6FF473A404FF6FF7707EA0527EE
:108B90003A434FF6FF7707EA03373A43DE4FB842CE
:108BA00011D0DE4FB8420ED0B0F1804F0BD0DC4F69
:108BB000B84208D0DB4FB84205D0DB4FB84202D0F4
:108BC000DA4FB84205D121F4005146F480573943B9
:108BD00004E021F4005144F4805739438283016258
:108BE000F0BD828B4FF6F3731A408283828B0A4367
:108BF00082837047F0B50C461546002200210026FE
:108C0000076A27F480770762828B016A26024FF693
:108C10000C773A404FF6FF7707EA03172F433A43A2
:108C2000BD4FB84211D0BD4FB8420ED0B0F1804F09
:108C30000BD0BB4FB84208D0BA4FB84205D0BA4F9C
:108C4000B84202D0B94FB84205D121F4007146F4C0
:108C50008077394304E021F4206144F4807739437C
:108C600082830162F0BD028B4FF2FF331A40028310
:108C7000028B4FF6FF7303EA01231A430283704706
:108C8000F0B50C461546002200210026076A27F0A1
:108C900010070762028B016A260140F6FF473A403F
:108CA0004FF6FF7707EA03373A434FF6FF7707EAB5
:108CB00005273A43984FB84211D0984FB8420ED08A
:108CC000B0F1804F0BD0964FB84208D0954FB842C4
:108CD00005D0954FB84202D0944FB84205D121F04B
:108CE000200146F01007394304E021F0A00144F0D0
:108CF0001007394302830162F0BD028B4FF6F37314
:108D00001A400283028B0A430283704770B50C46F7
:108D1000154600220021066A26F001060662028B33
:108D2000016A4FF60C7632404FF6FF7606EA0316DC
:108D30002E433243784EB04211D0784EB0420ED01E
:108D4000B0F1804F0BD0764EB04208D0754EB04295
:108D500005D0754EB04202D0744EB04205D121F01C
:108D6000020144F00106314304E021F00A0144F01D
:108D7000010631430283016270BD70B505460C46A1
:108D80006548854211D0654885420ED0B5F1804FC7
:108D90000BD06348854208D06248854205D06248BE
:108DA000854202D06148854200D100E000BF2088A2
:108DB00050B92389A28861882846FFF7A7FFE18878
:108DC0002846FFF79AFF25E0208804280AD1238946
:108DD000A28861882846FFF753FFE1882846FFF7FD
:108DE00042FF17E0208808280AD12389A2886188D9
:108DF0002846FFF7FFFEE1882846FFF7F2FE09E06C
:108E00002389A28861882846FFF7AEFEE1882846BC
:108E1000FFF79DFE70BD2DE9F04105460C4600268A
:108E20000127608808B9022600E00026A0880128F2
:108E300001D1022700E001272088A0B92389A28858
:108E400061882846FFF762FFE1882846FFF755FF53
:108E500023893A4631462846FFF712FFE188284623
:108E6000FFF701FF13E02389A28861882846FFF7F6
:108E700007FFE1882846FFF7F6FE23893A46314688
:108E80002846FFF743FFE1882846FFF736FFBDE895
:108E9000F08110B502460B884C8823438C8823430D
:108EA000CC8823430C8923434C8923438C89234357
:108EB000A2F8443010688B7B13B120F4806001E08D
:108EC00040F48060CB7B13B140F4803001E020F4AB
:108ED00080300B7C13B140F4003001E020F400300E
:108EE000106010BD4FF6FF71818000210180C180AC
:108EF0004180017241728172C17201734173817349
:108F000070470021018041808180C18001814181C1
:108F10008181C18170470000002C01400034014074
:108F20000004004000080040000C0040003C0040ED
:108F3000002101804180012181800021C1800181C7
:108F400070470021018041808180C1800181418181
:108F50008181704721B1026842F00102026003E0A2
:108F6000026822F001020260704731B1B0F844207B
:108F700042F40042A0F8442005E0B0F84420C2F3D7
:108F80000E02A0F8442070471AB183890B438381F5
:108F900002E083898B43838170478182704741EA75
:108FA0000203A0F8483070471AB183890B438381CC
:108FB00002E083898B438381704701894FF6F87201
:108FC0001140018170470A46002101894FF68F73D5
:108FD000194011430181704730B504460D462946BA
:108FE0002046FFF7F0FF208940F00700208130BDC8
:108FF0002DE9F04104460D4616461F46602D06D168
:109000003B46012231462046FFF73AFE05E03B464B
:10901000012231462046FFF779FE29462046FFF718
:10902000D2FF208940F007002081BDE8F08130B5F3
:109030000C4600210189C9B24FF6FF7505EA0325E8
:10904000154325432943018130BD2DE9F0410546F3
:109050000E4617469846002443463A46314628466F
:10906000FFF7E5FF2C894FF6F870044044F0070441
:109070004FF68F70044044F070042C81BDE8F081FD
:10908000F0B504460D4616461F463B463246294675
:109090002046FFF7CCFF208940F480402081F0BDBE
:1090A0000185828270470A460021016821F0700123
:1090B000114301607047F0B50C4615461E4600216D
:1090C000002200230189028B036A4FF6F8773940AA
:1090D00021434FF6FC473A4040F201173A4323F050
:1090E00022034FF6FF7707EA06172F433B43018120
:1090F00002830362F0BD0A460021018B4FF68F7395
:1091000019401143018370470A460021018B48F63C
:10911000FF7319404FF6FF7303EA022319430183DB
:1091200070470A460021818B4FF68F731940114317
:10913000818370470A460021818B48F6FF731940EE
:109140004FF6FF7303EA02231943818370470A46EF
:109150000021B0F854104FF68F7319401143A0F856
:10916000541070470A460021B0F8541048F6FF73B7
:1091700019404FF6FF7303EA02231943A0F8541075
:10918000704721B1026842F08002026003E0026889
:1091900022F080020260704721B1426842F004026E
:1091A000426003E0426822F004024260704721B14D
:1091B000426842F00802426003E0426822F008027E
:1091C0004260704721B1426842F00102426003E010
:1091D000426822F00102426070470A460021018B7A
:1091E0004FF6F77319401143018370470A46002177
:1091F000018B4FF2FF7319404FF6FF7303EA02230E
:109200001943018370470A460021818B4FF6F7739B
:1092100019401143818370470A460021818B4FF228
:10922000FF7319404FF6FF7303EA0223194381834A
:1092300070470A460021B0F854104FF6F7731940F2
:109240001143A0F8541070470A460021B0F854109A
:109250004FF2FF7319404FF6FF7303EA02231943DD
:10926000A0F8541070470A460021018B4FF6FB739B
:1092700019401143018370470A460021018B4FF6C4
:10928000FF3319404FF6FF7303EA022319430183AA
:1092900070470A460021818B4FF6FB73194011433A
:1092A000818370470A460021818B4FF6FF331940B6
:1092B0004FF6FF7303EA02231943818370470A467E
:1092C0000021B0F854104FF6FB7319401143A0F879
:1092D000541070470A460021B0F854104FF6FF337F
:1092E00019404FF6FF7303EA02231943A0F8541004
:1092F00070470A460021018B4FF67F7319401143D6
:10930000018370470A460021018BC1F30E014FF61D
:10931000FF7303EA02231943018370470A460021C1
:10932000818B4FF67F7319401143818370470A4642
:109330000021818BC1F30E014FF6FF7303EA022374
:109340001943818370470A460021B0F854104FF644
:109350007F7319401143A0F8541070470A4600214A
:10936000B0F85410C1F30E014FF6FF7303EA022365
:109370001943A0F8541070470A460021016A21F0F1
:1093800002011143016270470A460021016A21F07F
:1093900008011143016270470A460021016A21F069
:1093A000200141EA0211016270470A460021016A68
:1093B00021F0800141EA0211016270470A46002152
:1093C000016A21F4007141EA0221016270470A46F4
:1093D0000021016A21F4006141EA02210162704723
:1093E0000A460021016A21F4005141EA023101627A
:1093F00070470A460021016A21F4003141EA024126
:10940000016270470A460021016A21F4001141EA15
:1094100002510162704730B5002301248C40A3B291
:10942000046A9C430462046A02FA01F52C43046254
:1094300030BD30B5002304248C40A3B2046A9C43A1
:109440000462046A02FA01F52C43046230BD70B56F
:109450000346002000241846183001258D40ACB288
:109460001D6AE643B6B235401D6209B1082909D12B
:1094700000EB6100056825F070050560056815437F
:1094800005600EE00D1FC5F34E052844056825F460
:10949000E045056005684FF6FF7606EA022635438B
:1094A000056070BD21B1026842F00202026003E073
:1094B000026822F002020260704721B1026842F0A5
:1094C0000402026003E0026822F0040202607047B6
:1094D00021B1426842F08002426003E0426822F01B
:1094E000800242607047026822F00802026002684F
:1094F0000A4302607047426822F07002426042688C
:109500000A434260704702894FF6F8731A4002819D
:1095100002890A430281704702894FF67F731A401D
:10952000028102890A4302817047818470478185E4
:109530007047818670470187704781877047A0F820
:1095400040107047A0F858107047A0F85C107047A2
:10955000026822F44072026002680A4302607047A7
:109560000146888E70470146088F70470146888FF4
:1095700070470146B1F8400070470146B1F8580005
:1095800070470146B1F85C0070470146888C70470F
:109590000146088D70470146888D704702460020BD
:1095A000214B9A4202D0214B9A4206D1136A0B40BA
:1095B0000BB1012016E0002014E0B2F1804F0BD077
:1095C0001B4B9A4208D01B4B9A4205D01A4B9A4229
:1095D00002D01A4B9A4205D1136A0B400BB10120FD
:1095E00000E0002070470246002013690B400BB1D9
:1095F000012000E000207047CA430261704730B587
:109600000246002000230024156905EA010395891C
:1096100005EA010413B10CB1012000E0002030BDC7
:10962000CA43026170470000002C01400034014031
:109630000004004000080040000C0040003C0040D6
:1096400001460020FE4A106800F0F8000843106050
:109650007047FB49096821F01001F94A1160114671
:109660000968014311607047F548006840F0400008
:10967000F34908607047F249096821F08001F04A17
:10968000116011460968014311607047EC4909688F
:1096900021F40071EA4A1160114609680143116022
:1096A00070470020E649096801F4807109B1012082
:1096B00000E000207047E249096821F40061E04AB7
:1096C0001160114609680143116070470020DC49B0
:1096D000096801F4806109B1012000E000207047B1
:1096E000D749096943F6FF621140D54A1161114615
:1096F000096901431161704708B5002100220092F9
:109700000020D04A126802F00202C2B9CD4A1268A3
:1097100042F00102CB4B1A6000BFCA4A1268C2F382
:109720004001009A521C009219B9009AB2F5A06F3C
:10973000F3D1C44A1268C2F3400101B9012008BD47
:10974000C148BF494860C14848607047BC4800698B
:1097500040F08000BA49086170470620B849C968DE
:1097600001F0010109B101201CE0B549C96801F00F
:10977000040109B1032015E0B149C96801F00801ED
:1097800009B104200EE0AE49C96801F0100109B129
:10979000052007E0AA49C96801F0400109B1072086
:1097A00000E00620704700B502460623FFF7D5FF0C
:1097B000034603E0FFF7D1FF0346521E012B01D100
:1097C000002AF7D102B90A23184600BD9C49C9688E
:1097D00001439B4AD160704730B5044606257C2082
:1097E000FFF7F4FF4FF43020FFF7DDFF0546062DAD
:1097F00017D19348006940F002009149086108467A
:109800004461006940F0400008614FF43020FFF7E8
:10981000CAFF05468A48006943F6FD710840884939
:109820000861284630BD10B506247C20FFF7CEFF26
:109830004FF43020FFF7B7FF0446062C16D18048BE
:10984000006940F004007E4908610846006940F064
:10985000400008614FF43020FFF7A5FF0446784828
:10986000006943F6FB71084075490861204610BD48
:1098700000207349C96901F0020109B1012000E02B
:109880000020704700206E49C96901F0004109B10C
:10989000012000E00020704730B56D4D0624FFF731
:1098A000F1FF10B10824204630BDFFF7E1FF08B1F9
:1098B0004FF47F057C20FFF789FF4FF43020FFF73E
:1098C00072FF0446062C3ED15F485D4988605F48C0
:1098D00088600846006940F0200008610846006979
:1098E00040F0400008614FF43020FFF75CFF044671
:1098F000062C1FD17C20FFF769FF5148006943F611
:10990000DF7108404E4908610846006940F01000C8
:109910000861504805604FF40050FFF744FF0446CB
:109920000A2C10D04648006943F6EF7108404449BC
:10993000086108E00A2C06D04148006943F6DF714F
:1099400008403F4908612046AEE72DE9FE4F064634
:109950000F46904699460F9D0624FFF793FF18B1D6
:1099600008242046BDE8FE8FED4347EA080040EAA0
:1099700009000C99084346EA004002900D9840EA1D
:10998000004AE8B24FF47F0101EA05210843019043
:109990004FF47F0000EA1520C5F3074140EA010BB0
:1099A000DDE91101084313990843149908431099FC
:1099B00041EA00400090244821498860234888609B
:1099C0007C20FFF703FF4FF43020FFF7ECFE044646
:1099D000062C76D11A48006940F020001849086129
:1099E0000846006940F0400008614FF43020FFF75E
:1099F000DAFE0446062C65D17C20FFF7E7FE10480E
:109A0000006943F6DF7108400D49086108460069A6
:109A100040F0100008610F49029808604FF40050B0
:109A2000FFF7C1FE0446062C42D17C20FFF7CEFE94
:109A30000848001DC0F800A04FF400500CE00000E2
:109A4000002002400010024023016745AB89EFCDA2
:109A5000A500FFFF00F8FF1FFFF7A5FE0446062C38
:109A600026D17C20FFF7B2FEFE49019808604FF432
:109A70000050FFF798FE0446062C19D17C20FFF712
:109A8000A5FEF848001DC0F800B04FF40050FFF7E5
:109A90008AFE0446062C0BD17C20FFF797FEF14985
:109AA0000831009808604FF40050FFF77CFE044630
:109AB0000A2C10D0EC48006943F6EF710840EA49DF
:109AC000086108E00A2C06D0E748006943F6DF7118
:109AD0000840E5490861204644E778B504460D464C
:109AE00006260020009004F0030010B1092630463D
:109AF00078BD7C20FFF76AFE4FF40050FFF753FE5D
:109B00000646062E12D1D848006940F00100D64919
:109B1000086125604FF40050FFF745FE0646D24825
:109B2000006943F6FE710840CF4908613046DFE71F
:109B300070B505460E460624FFF7A4FE10B10824B2
:109B4000204670BD7C20FFF741FE4FF40050FFF728
:109B50002AFE0446062C18D1C448C3498860C4486C
:109B600088600846006940F0100008612E604FF4DC
:109B70000050FFF718FE04460A2C06D0BA480069C8
:109B800043F6EF710840B84908612046D9E72DE94E
:109B9000F04304464FF6FF763746B046B1460625F9
:109BA000FFF770FE18B108252846BDE8F083E443AE
:109BB000E6B2C4F30727C4F307484FEA14697C20D0
:109BC000FFF704FE4FF40050FFF7EDFD0546062DAC
:109BD00031D1A648A4498860A54888600846006934
:109BE00040F010000861FF2E01D1FF2F08D046EA97
:109BF00007409C4908604FF40050FFF7D4FD05462C
:109C0000B8F1FF0F02D1B9F1FF0F0BD0062D09D12A
:109C100048EA09409349091D08604FF40050FFF7D6
:109C2000C2FD05460A2D06D08F48006943F6EF7144
:109C300008408D4908612846B7E770B505460624F7
:109C40008948C06900F01C008603FFF71BFE10B1B5
:109C50000824204670BD7C20FFF7B8FD4FF430206B
:109C6000FFF7A1FD0446062C48D180487E49886054
:109C70007F4888600846006940F020000861084677
:109C8000006940F0400008614FF43020FFF78BFD81
:109C90000446062C29D17C20FFF798FD7248006904
:109CA00043F6DF710840704908610846006940F0DA
:109CB000100008612DB106F47F006A490839086078
:109CC00004E046F0A5006749083908604FF43020E9
:109CD000FFF769FD04460A2C10D06348006943F67B
:109CE000EF7108406049086108E00A2C06D05E4820
:109CF000006943F6DF7108405B4908612046A9E727
:109D000030B506245848C06900F01C008503FFF7F1
:109D1000AFFD08B945F0A505FFF7B4FD10B1082463
:109D2000204630BD7C20FFF751FD4FF43020FFF777
:109D30003AFD0446062C4DD14C484B4988604C48AE
:109D400088600846006940F0200008610846006904
:109D500040F0400008614FF43020FFF724FD044636
:109D6000062C2ED17C20FFF731FD3F48006943F6D9
:109D7000DF7108403C4908610846006940F0100066
:109D800008613848083805604FF43020FFF70BFDB4
:109D90000446062C0BD17C20FFF718FD35483149CD
:109DA000083108604FF43020FFF7FDFC04460A2C10
:109DB00010D02D48006943F6EF7108402A49086128
:109DC00008E00A2C06D02848006943F6DF710840F5
:109DD000254908612046A4E72DE9F04305460E46D3
:109DE00017469846DFF890900624FFF74BFD18B110
:109DF00008242046BDE8F083FFF73AFD18B1DFF8EC
:109E00007890A9F1A5091948174988601848886011
:109E10007C20FFF7DBFC4FF43020FFF7C4FC044646
:109E2000062C4FD11048006940F020000E4908610F
:109E30000846006940F0400008614FF43020FFF709
:109E4000B2FC0446062C34D17C20FFF7BFFC064848
:109E5000006943F6DF71084003490861084600695C
:109E60000CE0000008F8FF1F0020024023016745B6
:109E7000AB89EFCDCC33FFFFA500F0FF40F0100021
:109E8000086145EA0600384340EA080049EA004014
:109E9000694908604FF40050FFF785FC04460A2C1E
:109EA00010D06648006943F6EF71084063490861C5
:109EB00008E00A2C06D06148006943F6DF710840CB
:109EC0005E490861204695E72DE9F04705460E46B4
:109ED00017469846DFF868916FF47F0A0624FFF76B
:109EE000D1FC18B108242046BDE8F087FFF7C0FC7C
:109EF00018B1DFF84C91A9F1A50952484F49886083
:109F0000514888607C20FFF761FC4FF43020FFF758
:109F10004AFC0446062C4FD14848006940F0200016
:109F2000464908610846006940F0400008614FF466
:109F30003020FFF738FC0446062C34D17C20FFF794
:109F400045FC3E48006943F6DF7108403B49086123
:109F50000846006940F0100008613748C0F80090DA
:109F60004FF40050FFF71FFC0446062C11D17C2053
:109F7000FFF72CFC45EA0600384340EA08004AEAAD
:109F800000402D49103108604FF40050FFF70BFCE2
:109F900004460A2C10D02948006943F6EF710840A6
:109FA0002649086108E00A2C06D02448006943F6D7
:109FB000DF71084021490861204695E71F48C069C4
:109FC000800870471D48006A704700201B490968D7
:109FD00001F0200109B1012000E0002070470020BD
:109FE0001649096943F6FF62114009B1012000E0FA
:109FF0000020704729B1114A126902430F4B1A61C0
:10A0000004E00E4A126982430C4B1A617047014604
:10A010000020012908D1094AD26902F001020AB1DF
:10A02000012008E0002006E0044AD2680A400AB194
:10A03000012000E00020704700F8FF1F00200240D0
:10A04000A500FFFF23016745AB89EFCD10B504469E
:10A05000FB48844207D101218014FEF7D0F800218B
:10A06000A014FEF7CCF810BD30B502460020002346
:10A070005068F44C20400C7840EA0420506090680E
:10A08000F14C2040D1E901542C434D7844EA450479
:10A0900020439060D06A20F470000C7B641EE4B210
:10A0A000234340EA0350D06230BD0021017041706B
:10A0B0004160816001210173704721B1826842F0E3
:10A0C0000102826003E0826822F001028260704730
:10A0D00021B1826842F48072826003E0826822F4D7
:10A0E00080728260704710B50023CBB21AB1446809
:10A0F0001C43446002E044689C43446010BD416DD1
:10A1000019B9816841F0040181607047014600205F
:10A110008A6802F004020AB1012000E000204A6DC2
:10A1200002B10020704721B1826842F4A00282602F
:10A1300003E0826822F4A00282607047014600209A
:10A140008A6802F480020AB1012000E00020704712
:10A1500010B50A4600210023416821F46041531ED6
:10A1600041EA4331416010BD21B1426842F40062CE
:10A17000426003E0426822F4006242607047F0B53A
:10A180000446154600200022122904D1E06D20F07B
:10A1900007001843E065092911DDE068A1F10A060E
:10A1A00006EB4607072606FA07F29043A1F10A06D6
:10A1B00006EB460603FA06F21043E0600CE0206965
:10A1C00001EB4107072606FA07F2904301EB41062F
:10A1D00003FA06F210432061072D0FDA606B6E1E42
:10A1E00006EB86071F2606FA07F290436E1E06EB63
:10A1F000860601FA06F21043606322E00D2D0FDAA5
:10A20000206BEE1F06EB86071F2606FA07F2904327
:10A21000EE1F06EB860601FA06F21043206310E0FB
:10A22000E06AA5F10D0606EB86071F2606FA07F27F
:10A230009043A5F10D0606EB860601FA06F21043DF
:10A24000E062F0BD21B1826842F48012826003E0D6
:10A25000826822F48012826070470146C86C80B226
:10A26000704721B1426842F48062426003E0426874
:10A2700022F480624260704721B1426842F4805209
:10A28000426003E0426822F48052426070470A460E
:10A290000021816821F4E04111438160704721B1C0
:10A2A000826842F40042826003E0826822F4004245
:10A2B0008260704721B1826842F40212826003E03A
:10A2C000826822F4021282607047014600208A6888
:10A2D00002F400120AB1012000E000207047F0B53E
:10A2E00004461546002000220026122905D1E06D03
:10A2F00020F007001843E06520E0092911DDE0683F
:10A30000A1F10A0707EB470C072707FA0CF2904365
:10A31000A1F10A0707EB470703FA07F21043E060D1
:10A320000CE0206901EB410C072707FA0CF290437F
:10A3300001EB410703FA07F210432061A06BC0F361
:10A340000156EF1C06F1010CA7EB0C0707EB870C7D
:10A350001F2707FA0CF29043EF1C06F1010CA7EB44
:10A360000C0707EB870701FA07F21043A063F0BD63
:10A3700010B50A4600210023816B21F44011531EC1
:10A3800041EA0351816310BD08B50023009300909A
:10A39000009B0B440093009B1A6008BD08B5024661
:10A3A00000200090009201F12800009B18440090CA
:10A3B0000098006880B208BD0A4600214168234B1E
:10A3C00019401143416070474162826270470A46FA
:10A3D0000021416821F01F01114341607047B0B175
:10A3E00017490831096841F40001154A0832116023
:10A3F00000BF1749096841F40051154A116000BFB8
:10A4000000BF1146096841F48011116016E00C4943
:10A410000831096821F40001094A0832116000BFBF
:10A420000B49096821F40051094A116000BF00BFBF
:10A430001146096821F48011116000BF70470000C7
:10A4400000080240FFFEF0FFFDF7F1FFFFFD3FFFB8
:10A45000241800400246002013680B400BB1012075
:10A4600000E0002070477F228A430260704770B589
:10A4700002460020002300240B125568CEB205EAE4
:10A48000060415681D4015B10CB1012000E0002044
:10A4900070BD00220A127F23934303607047024677
:10A4A0000020CB7923B1D36D43F00803D36503E0DB
:10A4B000D36D23F00803D365906D0B7813B140F48E
:10A4C000806001E020F480604B7813B140F40070AC
:10A4D00001E020F400708B7813B140F4807001E04B
:10A4E00020F480700B7913B140F0080001E020F0F7
:10A4F00008004B7913B140F0040001E020F00400A3
:10A5000020F003008B79184320F01000CB78012B4A
:10A5100001D140F010009065704702460020936D15
:10A520000B400BB1012000E0002070470A460021DB
:10A53000816D12B141F0800101E021F0800181655F
:10A5400070470A460021816D21F0030111438165A6
:10A55000704770B505460C4645B900214FF4807030
:10A56000FDF77FFC2046FDF78BFC06E0012120462D
:10A57000FDF777FC0020FDF783FC70BD10B50446A5
:10A5800001214806FDF755FE00214FF00070FDF750
:10A5900050FE10BD30B5024600200023146824F0A0
:10A5A00002041460146844F00104146000E05B1CB1
:10A5B000546804F001041CB94FF6FF74A342F6D1AD
:10A5C000546804F001040CB900206CE08C79012C73
:10A5D00004D1146844F08004146003E0146824F08B
:10A5E00080041460CC79012C04D1146844F0400438
:10A5F000146003E0146824F0400414600C7A012C09
:10A6000004D1146844F02004146003E0146824F0BA
:10A61000200414604C7A012C04D1146844F0100416
:10A62000146003E0146824F0100414608C7A012C88
:10A6300004D1146844F00804146003E0146824F0A2
:10A6400008041460CC7A012C04D1146844F004048A
:10A65000146003E0146824F0040414608C78A407E8
:10A66000CD7844EA05640D7944EA05444D7944EA1D
:10A6700005540D886D1E2C43D461146824F0010428
:10A680001460002300E05B1C546804F001041CB15A
:10A690004FF6FF74A342F6D1546804F001040CB1E4
:10A6A000002000E0012030BD10B50021837A012296
:10A6B00002FA03F1FE4A126842F00102FC4B1A60F2
:10A6C000FB4A1C3212688A43F94B1C331A60027B26
:10A6D000CAB9F74A0C3212688A43F54B0C331A6038
:10A6E0004288C38842EA0343F14A4032847A42F8FE
:10A6F00034300288838842EA0343ED4A4032847A48
:10A7000002EBC4025360027B012A19D1E84A0C32E1
:10A7100012680A43E64B0C331A604288038842EA07
:10A720000343E34A4032847A42F83430C288838853
:10A7300042EA0343DE4A4032847A02EBC4025360A9
:10A74000C27A3AB9DA4A121D12688A43D84B1B1DE5
:10A750001A6006E0D64A121D12680A43D44B1B1D2C
:10A760001A60028932B9D24A143212688A43D04B35
:10A7700014331A600289012A06D1CD4A14321268B4
:10A780000A43CB4B14331A60427B012A06D1C84AD4
:10A790001C3212680A43C64B1C331A60C44A126842
:10A7A00022F00102C24B1A6010BD00218171C171FB
:10A7B000017241728172C1728170C1700321017195
:10A7C0000221417101210180704721B1026842F4E8
:10A7D0008032026003E0026822F480320260704737
:10A7E000E1B1026842F0800202604FF4C272125876
:10A7F00042F480734FF4C27213504FF4CA7212586D
:10A8000042F480734FF4CA7213504FF4D27212584C
:10A8100042F480734FF4D27213501BE0026822F0AE
:10A82000800202604FF4C272125822F480734FF417
:10A83000C27213504FF4CA72125822F480734FF44C
:10A84000CA7213504FF4D272125822F480734FF42C
:10A85000D2721350704710B502460020936803F07F
:10A860008063B3F1806F00D110E0936803F0006360
:10A87000B3F1006F01D1012008E0936803F0805329
:10A88000B3F1805F01D1022000E00420042874D0DD
:10A8900002F5C07303EB00131B6803F0010402F51B
:10A8A000C07303EB00131C600B7A7BB94B7A0C88E6
:10A8B00043EA445302F5C07404EB001424682343B4
:10A8C00002F5C07404EB0014236010E00B7A4C68AE
:10A8D00043EAC4034C7A234302F5C07404EB00142A
:10A8E0002468234302F5C07404EB001423608B7AC0
:10A8F00003F00F038B7202F5C07303EB00135B6868
:10A9000023F00F0402F5C07303EB00135C6002F543
:10A91000C07303EB00135B688C7A234302F5C074A9
:10A9200004EB001463608B7B1C064B7B44EA0344FE
:10A930000B7B44EA0323CC7A234302F5C07404EB77
:10A940000014A3608B7C1C064B7C44EA03440B7C04
:10A9500044EA0323CC7B234302F5C07404EB0014C8
:10A96000E36002F5C07303EB00131B6843F00104BE
:10A9700002F5C07303EB00131C6010BD10B5024656
:10A98000002321B1012907D002290FD109E09068E5
:10A99000484C00EA04030BE09068474C00EA0403CB
:10A9A00006E09068454C00EA040301E0002300BF84
:10A9B00000BF434C181BA34216D007DC83B16FF0D5
:10A9C0008060184470B1022818D111E0B0F5007F02
:10A9D00010D03C4C204448B1B0F5003F0ED10BE004
:10A9E00002230DE000230BE0002309E0002307E031
:10A9F000012305E0012303E0012301E0002300BF60
:10AA000000BFD8B210BD21B1012907D002290FD152
:10AA100009E0826842F0800282600AE0826842F4C3
:10AA20000042826005E0826842F40002826000E039
:10AA300000BF00BF704710B500F5D87303EB0113DA
:10AA40001B6803F004031372137A53B900F5D8732B
:10AA500003EB01131B6840F2FF7404EA53531360C5
:10AA600009E000F5D87303EB01131B686FF0604435
:10AA700004EAD303536000F5D87303EB01131B689A
:10AA800003F00203537200F5D87303EB01135B6804
:10AA900003F00F03937200F5D87303EB01135B68A7
:10AAA0001B0AD37400F5D87303EB01139B680BE00A
:10AAB00000660040030000040003000800000310CB
:10AAC000000100080001FFF7D37200F5D87303EB13
:10AAD00001139B681C0A147300F5D87303EB011370
:10AAE0009B681C0C547300F5D87303EB01139B682F
:10AAF0001B0E937300F5D87303EB0113DB68D3735C
:10AB000000F5D87303EB0113DB681C0A147400F51D
:10AB1000D87303EB0113DB681C0C547400F5D87375
:10AB200003EB0113DB681B0E937421B9C36843F078
:10AB30002003C36003E0036943F02003036110BDF9
:10AB400021B9C26842F02002C26003E0026942F00B
:10AB50002002026170470246002019B9D36803F051
:10AB6000030006E0012903D1136903F0030000E0AC
:10AB70000020704710B502460B4600204FF6FF71CB
:10AB8000BBB9146824F0020444F00104146000E02E
:10AB9000491E546804F00304012C01D00029F7D1A8
:10ABA000546804F00304012C01D0002032E001209D
:10ABB00030E0012B13D1146824F00304146000E08A
:10ABC000491E546804F003040CB10029F8D15468FC
:10ABD00004F003040CB100201CE001201AE0022B59
:10ABE00017D1146824F0010444F00204146000E05A
:10ABF000491E546804F00304022C01D00029F7D147
:10AC0000546804F00304022C01D0002002E001206B
:10AC100000E0002010BD014600200A6822F0010279
:10AC200042F002020A604A6802F00302022A00D1DE
:10AC30000120704701464FF6FF7200200B6823F099
:10AC400002030B6000E0521E4B6803F00203022B6C
:10AC500001D1002AF7D14B6803F00203022B00D088
:10AC600001207047014600208A6902F07000704799
:10AC7000014600208A69100E7047014600208A694B
:10AC8000C2F3074070471AB143690B43436102E0C6
:10AC900043698B434361704710B50246002001F4BD
:10ACA000700343B19369C1F3130423400BB1012036
:10ACB0002DE000202BE001F0807343B15368C1F315
:10ACC000130423400BB1012021E000201FE001F01C
:10ACD000006343B19368C1F3130423400BB1012017
:10ACE00015E0002013E001F0007343B1D368C1F315
:10ACF000130423400BB1012009E0002007E0136991
:10AD0000C1F3130423400BB1012000E0002010BD6B
:10AD10000022804B994202D10023836111E0C1F3EC
:10AD2000130201F000730BB1C2600AE001F080630E
:10AD30000BB1026105E001F000630BB1826000E03D
:10AD4000426070470246002002EA01030BB1012075
:10AD500000E00020704770B504460D46002660698B
:10AD60002840002871D0B5F5807F5CD010DC082D1C
:10AD700035D006DC012D20D0022D24D0042D72D137
:10AD800027E0102D31D0202D35D0402D6BD138E06B
:10AD9000B5F5004F60D009DCB5F5007F49D0B5F5B9
:10ADA000806F4CD0B5F5006F5DD14FE0B5F5803FB9
:10ADB0002DD0B5F5003F56D12FE0A0685649FFF7DA
:10ADC000C1FF064651E0E0680321FFF7BBFF0646DE
:10ADD0004BE0E0680821FFF7B5FF064645E0E06874
:10ADE0001021FFF7AFFF06463FE020690321FFF780
:10ADF000A9FF064639E020690821FFF7A3FF0646B0
:10AE000033E020691021FFF79DFF06462DE06068C2
:10AE10000821FFF797FF064627E060681021FFF73B
:10AE200091FF064621E0A0690121FFF78BFF06464E
:10AE30001BE0A0690221FFF785FF064615E0A06927
:10AE40000421FFF77FFF06460FE00FE0A0697021A5
:10AE5000FFF778FF064608E060680421FFF772FFFD
:10AE6000064602E0FFE7002600BF00E0002630466D
:10AE700070BDB1F5007F3AD00FDC202928D006DC68
:10AE800001291CD004291DD0082940D11DE04029EA
:10AE900021D0B1F5807F3AD126E0B1F5004F31D015
:10AEA00006DCB1F5806F25D0B1F5006F2FD124E01D
:10AEB000B1F5803F12D0B1F5003F28D111E0164A1C
:10AEC000826025E00822C26022E01022C2601FE0FA
:10AED000082202611CE01022026119E0082242608F
:10AEE00016E01022426013E00422426010E00422C7
:10AEF00042600DE0042242600AE0002282610422E6
:10AF0000426005E0002282610422426000E000BF4E
:10AF100000BF70477000F0300101010010B5044619
:10AF2000F748844209D101214805FDF782F9002143
:10AF30004FF40010FDF77DF908E001218805FDF7C9
:10AF400078F900214FF48000FDF773F910BD2DE969
:10AF5000F04387B004460D460026B1460427DFF8CB
:10AF6000A483A6884FF6C070064001A8FDF796F8A6
:10AF7000DDF80C80E448B8FBF0F01FFA80F946EAEF
:10AF80000906A68020884FF6FE7108402080002622
:10AF9000DE49286888420CD828684000B8FBF0F0E9
:10AFA00087B2042F00DA04273E4309F10100208410
:10AFB00027E0E8884BF6FF71884206D1286800EB4D
:10AFC0004000B8FBF0F087B209E0286800EBC00150
:10AFD00001EB0010B8FBF0F087B247F48047C7F3ED
:10AFE0000B0008B947F0010747F4004006434FF44F
:10AFF000967009FB00F04FF47A7190FBF1F0401C61
:10B000002084A683208840F00100208026884FF607
:10B01000F5300640A8886989084306432680A88938
:10B0200029890843208107B0BDE8F08341F28831C7
:10B030000160002181804BF6FF71C18000210181F8
:10B0400041814FF480418181704721B1028842F0F3
:10B050000102028004E002884FF6FE731A4002806B
:10B06000704721B1828842F40062828004E08288C5
:10B070004FF2FF731A408280704721B1828842F4F8
:10B080008052828004E082884EF6FF731A408280EC
:10B09000704721B1028842F48072028004E0028885
:10B0A0004FF6FF631A400280704721B1028842F4D4
:10B0B0000072028004E002884FF6FF531A400280BB
:10B0C000704721B1028842F48062028004E0028865
:10B0D0004FF6FF331A40028070470A4600218189EB
:10B0E0004FF60173194002F0FE0319438181704746
:10B0F00021B1828942F00102828104E082894FF607
:10B10000FE731A408281704721B1028842F04002EA
:10B11000028004E002884FF6BF731A400280704735
:10B120001AB183880B43838002E083888B4383803A
:10B130007047018270470146088AC0B2704712B159
:10B1400041F0010102E04FF6FE73194001827047A1
:10B1500008B5024600200090009200980844009034
:10B160000098008808BD21B1028842F400420280A4
:10B1700003E00288C2F30E0202807047B1F5006F4F
:10B1800004D1028842F40062028004E002884FF297
:10B19000FF731A4002807047B1F5005F04D1028846
:10B1A00042F40052028004E002884DF6FF731A4018
:10B1B0000280704721B1028842F48052028004E08C
:10B1C00002884EF6FF731A4002807047B1F5006F97
:10B1D00004D1028842F40062028004E002884FF247
:10B1E000FF731A400280704721B1028842F02002AA
:10B1F000028004E002884FF6DF731A400280704735
:10B200000146088B0012704721B1028842F01002FB
:10B21000028004E002884FF6EF731A400280704704
:10B2200021B9028842F08002028004E002884FF6D1
:10B230007F731A4002807047B1F5804F05D0828B32
:10B240004BF6FF731A40828303E0828B42F4804204
:10B250008283704770B50246002400250023002039
:10B26000958A138B1B0445EA030626F07F4404EA03
:10B2700001068E4201D1012000E0002070BD10B512
:10B2800001460020002300228B8A0A8B120443EA25
:10B29000020424F07F4010BD0CB5024600200023BC
:10B2A0000193009300920B0F019321F07F41019BCA
:10B2B0001BB1009B1433009303E0090C009B18336F
:10B2C0000093009B1B680B400BB1012000E00020A5
:10B2D0000CBD002221F07F42D3438382704730B5FA
:10B2E000024600200023948801F0E06504EA15433B
:10B2F00021F07F41948A0C4054B14BB1012008E009
:10B300000054004000127A0040420F00A086010065
:10B31000002030BD002221F07F42D343838270475A
:10B3200001684FF6FE72114001600021016041602A
:10B330008160C1606749884208D166490839496817
:10B3400041F00F01634A083A516059E061491431F4
:10B35000884208D15F490839496841F0F0015D4AE7
:10B36000083A51604CE05B492831884208D159497C
:10B370000839496841F47061564A083A51603FE023
:10B3800054493C31884208D152490839496841F44E
:10B390007041504A083A516032E04E49503188427B
:10B3A00008D14C490839496841F47021494A083AA2
:10B3B000516025E047496431884208D14549083940
:10B3C000496841F47001434A083A516018E0414924
:10B3D0007831884208D13F490839496841F07061A5
:10B3E0003C4A083A51600BE03A498C31884207D117
:10B3F00038490839496841F07041364A083A516085
:10B40000704710B50022026847F6F0739A430C6A41
:10B410008B6823430C6923434C6923438C69234382
:10B42000CC6923434C6A23438C6A23431A4302604A
:10B43000CB6843600B6883604B68C36010BD00211C
:10B44000016041608160C160016141618161C161F0
:10B45000016241628162704721B1026842F00102DB
:10B46000026004E002684FF6FE731A400260704703
:10B470001AB103680B43036002E003688B43036067
:10B480007047416070470146486880B2704710B508
:10B490000246002000230B6803EA02040CB10120DD
:10B4A00000E0002010BD4860704710B50246002043
:10B4B00000230B6803EA02040CB1012000E0002025
:10B4C00010BD4860704710B50BB1106101E0002459
:10B4D000146110BD08000240704700BFFEE700BFC6
:10B4E000FEE700BFFEE700BFFEE77047704770470A
:10B4F00010B501218807FEF793F810BD704710B50D
:10B5000040F22551C848FDF78FF800285CD040F282
:10B510002551C548FDF7B2F8C348FDF71CF8C4B281
:10B52000C148FDF718F8C1490988C1F30D01C04AA7
:10B530005054BE480088401CBC490880084600881A
:10B54000C0F30D00088008460088C82801DB0020F1
:10B550000880B848007880B9AA2C0AD10120B549E2
:10B560000870B5480470B5480078401CB3490870AD
:10B570002AE00020AF49087026E0B0480078132880
:10B580000BD1AD48C4740146AD4802F08EFC0020DA
:10B59000A8490870A949087016E0A8480078012851
:10B5A00007D1A5484470A5480078401CA3490870FD
:10B5B0000AE0A2480078801E9F49891C0C549F48CD
:10B5C0000078401C9D49087010BD10B540F225510F
:10B5D0009C48FDF729F800285BD040F22551994896
:10B5E000FDF74CF89748FCF7B6FFC4B29548FCF756
:10B5F000B2FF95490988C1F30D01944A505492480D
:10B600000088401C9049088008460088C0F30D005F
:10B61000088008460088C82801DB002008808C4884
:10B62000007880B9712C0AD10120894908708948B5
:10B63000047089480078401C874908702EE000207B
:10B64000834908702AE0844800780C280BD181488F
:10B6500044730146814805F0DBFA00207C490870FC
:10B660007D4908701AE07C4800780C2805DD002030
:10B67000774908707849087010E077480078401ED4
:10B680007449491C0C5474480078401C7249087075
:10B6900004E040F225516B48FCF7F0FF4FF458717D
:10B6A0006848FCF7C1FF40B16648FCF754FF4FF40F
:10B6B00058716448FCF7E2FF07E06248FCF74BFF73
:10B6C0004FF458715F48FCF7D9FF10BD10B540F238
:10B6D00025516348FCF7A8FF002877D040F2255198
:10B6E0005F48FCF7CBFF5E48FCF735FFC4B25C480F
:10B6F000FCF731FF5B490988C1F30D015A4A5054E8
:10B7000058480088401C5749088008460088C0F304
:10B710000D00088008460088C82801DB002008804A
:10B7200052480078B0B94C2C05D08A2C03D08B2C11
:10B7300001D08C2C0AD101204C4908704C4804706F
:10B740004C480078401C4B49087051E000204749A4
:10B7500008704DE047480078122803D1444800782B
:10B760004C2817D0434800780A2803D14048007875
:10B770008A280FD03F480078072803D13C4800783A
:10B780008B2807D03B480078072815D13848007827
:10B790008C2811D137480078401E3549491C0C547B
:10B7A000481EC4740146344805F063FA00202F494E
:10B7B0000870304908701BE02E480078122806DD1A
:10B7C00000202A4908702B49087011E00BE0294835
:10B7D0000078401E2649491C0C5426480078401C1D
:10B7E0002449087004E040F225511D48FCF746FF4B
:10B7F0004FF458711A48FCF717FF40B11848FCF78E
:10B80000AAFE4FF458711648FCF738FF07E01448B9
:10B81000FCF7A1FE4FF458711148FCF72FFF10BD43
:10B8200010B510F078FA10BD00380140380500203E
:10B83000801F0020040000200407002005000020D5
:10B8400086070020004400403A05002048200020E0
:10B85000060000201807002007000020240E00200A
:10B86000004800403C050020102100200800002076
:10B870002607002009000020F90E002001E010F04A
:10B8800021FFFCE7F0B50C46002502F00701CF18B8
:10B890000126BE4001278F40F61BF5B20678AE4365
:10B8A0000670067804FA01F73E430670F0BD2DE9F4
:10B8B000F04303460C461546002600229446002716
:10B8C000002003F00706DA1006EB0408A8F10108CF
:10B8D000A2EBE80808F0FF0C61460CE015F80180C7
:10B8E000A2EB01094FEAC90908FA09F8474401F136
:10B8F000010808F0FF019142F0DD27FA06F04FF051
:10B90000010808FA04F8A8F1010808EA0000BDE8F7
:10B91000F0832DE9F04706460C4617469946002568
:10B920004FEAE60806F00700C0F10805AC4200DC6B
:10B93000254600BF0120A840401E384000F0FF0A05
:10B9400009EB08002B4632465146FFF79BFFA54204
:10B9500000D10FE0A8F1010000F0FF084FEAC86035
:10B96000060EEF40601BC4B2082C01DC254600E047
:10B970000825DFE700BFBDE8F08730B5034601E0EA
:10B9800003F8011B141EA2F10105AAB2F8DC30BDB8
:10B9900070B503460C4603E014F8015B03F8015B45
:10B9A000151EA2F10106B2B2F6DC70BDF0B5034679
:10B9B0001C460D4607E014F8016B15F8017BBE42EA
:10B9C00001D00020F0BD101EA2F10106B2B2F2DCDF
:10B9D0000120F7E710B502461346002003E00024DB
:10B9E0001C54441CA0B28842F9DB10BD002106E0C3
:10B9F000002200E0521CB2F57A7FFBD3491C814241
:10BA0000F6D3704710B502460B460020002104E033
:10BA1000545C0444E0B24C1CE1B29942F8DB10BD26
:10BA200010B50AF0F4FF0020F8490860F8490870E2
:10BA3000F8490870F8490870F8490870F849087022
:10BA4000F8490870F8490870F8490870F849087012
:10BA500000240CE00020F7490855F7490855F7493C
:10BA60000855F7490855F7490855601CC4B2062C1B
:10BA7000F0DB0020F44908700220F449087000202F
:10BA8000F3490870F349087010BD70473EB50024B3
:10BA9000F1A207CA8DE80700F2480068401CF1498E
:10BAA0000860084600680521B0FBF1F201FB1200B6
:10BAB00001280DD1EC48007850B9092168460EF0F4
:10BAC00022F8E8480068142802D90120E6490870E5
:10BAD0003EBD2DE9F04105460027B846284611F045
:10BAE0000BFCC6B2132E00DD1326062E01DA012749
:10BAF00020E000241BE0285D202801D1062C14DA68
:10BB0000285D302802DB285D39280EDD285D4128BC
:10BB100002DB285D5A2808DD285D612802DB285DEC
:10BB20007A2802DD4FF0010803E0601CC4B2B44281
:10BB3000E1DB00BFB8F1000F00D002273846BDE8B6
:10BB4000F0812DE9F04188B005460E4617460024E5
:10BB50002022C6A1684611F0ABFB4FF0FF08284633
:10BB6000FFF7B7FF8046B8F1000F14D1132E12D1A2
:10BB700000BF06E0295D04F10A000DF80010601C0A
:10BB8000C4B2132CF6DB1F2168460DF0BCFF17B1C1
:10BB90000120BE49087008B0BDE8F08110B5AC487E
:10BBA000007801287DD1BA48007806287AD2DFE8EB
:10BBB00000F003131F313A87B648007840B10120E6
:10BBC000B5490870B2480078401CB149087002E0DD
:10BBD0000320AF4908707CE00020AF490870AC48F2
:10BBE0000078401CAA4908700020AC49087070E039
:10BBF000AA480078401CA9490870084600780A281D
:10BC000007DDA3480078401CA14908700020A34923
:10BC100008705EE09E480078401C9D490870002036
:10BC20009F49086055E09B480078F0B19C48006847
:10BC3000401C9B49086008460068052803D900207D
:10BC400008609349087097480068401C954908604F
:10BC500008460068032832D9002008607C49087033
:10BC60008D4908708A49087029E0002405E08E4853
:10BC7000005D8E490855601CC4B2112CF7DB1124FD
:10BC800004E0202089490855601CC4B2132CF8DB5D
:10BC90000BF0A0FF002213218448FFF752FF64201D
:10BCA00001E017E014E0FFF7A1FE012213217F4815
:10BCB000FFF747FF76480078401C7549087008E098
:10BCC000002063490870744908707149087000E0E9
:10BCD00000BF00BF10BD7648007801280CD1754820
:10BCE0000078401C73490870084600780A2803D180
:10BCF000002008706E490870704710B563480078DE
:10BD0000012826D16C48007820B101280BD00228E8
:10BD10001DD111E000206049087067480078401C80
:10BD20006549087014E001205B490870624800789A
:10BD3000401C614908700BE00020574908700DF065
:10BD400061FB0020514908705B49087000E000BFAA
:10BD500000BF10BD0FB410B558480078401C142126
:10BD6000B0FBF1F201FB120055490978884203D17A
:10BD7000012010BC5DF814FB5049097801EB8101EA
:10BD8000504A02EB8100142202A911F091FA4B48AB
:10BD90000078401C1421B0FBF1F201FB120047496E
:10BDA00008700420E5E770B502460020072500234F
:10BDB000002412E0D65C70405B1C00240AE000F016
:10BDC0008006802E03D14606300E684001E046060C
:10BDD000300E641C082CF2DB491E0029EAD170BD2C
:10BDE00010B586B0002455208DF8040043208DF84E
:10BDF000050000BF06E03448015D0DF10600015565
:10BE0000601CC4B2042CF6DB002467E0D4020020DE
:10BE1000D8020020A1020020D9020020A4020020A4
:10BE2000A5020020A6020020B9020020C6020020C0
:10BE3000C7020020AD020020A7020020B3020020AC
:10BE4000C0020020BA0200200C030020A003002042
:10BE5000510000205200002041542B46433D310D3B
:10BE60000A00000000040020C903002041542B4CAC
:10BE7000454E414D453D3132333435363738393012
:10BE80003132333435363738390D0A004F0000204F
:10BE9000EA0300204C00002050000020F4030020A2
:10BEA000EC030020F0030020E20C00203A07002001
:10BEB0004D000020F5030020E90300209D03002031
:10BEC0009C030020B5080020A40D0020F948025D65
:10BED000201D0DF106010A54601CC4B2042CF5DBD0
:10BEE000002409E0F348001D025D04F108000DF193
:10BEF00006010A54601CC4B2042CF3DB132101A810
:10BF0000FFF751FF8DF817000598009001A80FC8A2
:10BF1000FFF720FF06B010BD10B586B000245520F5
:10BF20008DF8040073208DF805000F22E2490DF111
:10BF30000600FFF72DFD0F2406E0FF220DF106009D
:10BF4000611C4254601CC4B2102CF6D3132101A80A
:10BF5000FFF729FF8DF817000598009001A80FC87A
:10BF6000FFF7F8FE06B010BD10B586B000245520CE
:10BF70008DF8040072208DF805001022CF490DF1D4
:10BF80000600FFF705FD102406E0FF220DF1060074
:10BF9000611C4254601CC4B2102CF6D3132101A8BA
:10BFA000FFF701FF8DF817000598009001A80FC852
:10BFB000FFF7D0FE06B010BD10B586B000245520A6
:10BFC0008DF8040071208DF80500BD48BD4A127837
:10BFD00000EB021110220DF10600FFF7D9FC10242E
:10BFE00006E0FF220DF10600611C4254601CC4B241
:10BFF000102CF6D3132101A8FFF7D5FE8DF81700FA
:10C000000598009001A80FC8FFF7A4FE06B010BD68
:10C0100010B586B0002455208DF8040056208DF808
:10C0200005001022A8490DF10600FFF7B1FC10240D
:10C0300006E0FF220DF10600611C4254601CC4B2F0
:10C04000102CF6D3132101A8FFF7ADFE8DF81700D1
:10C050000598009001A80FC8FFF77CFE06B010BD40
:10C0600010B586B0002455208DF804008DF8050029
:10C07000102296490DF10600FFF78AFC102406E015
:10C08000FF220DF10600611C4254601CC4B2102C4A
:10C09000F6D3132101A8FFF786FE8DF81700059847
:10C0A000009001A80FC8FFF755FE06B010BD10B5EF
:10C0B00086B0002455208DF8040042208DF805003C
:10C0C00000BF06E08248015D0DF106000155601CCD
:10C0D000C4B2112CF6DB132101A8FFF764FE8DF822
:10C0E00017000598009001A80FC8FFF733FE06B0AF
:10C0F00010BD10B586B0002455208DF804005420E2
:10C100008DF80500112273490DF10600FFF740FC80
:10C11000112406E0FF220DF10600611C4254601C50
:10C12000C4B2102CF6D3132101A8FFF73CFE8DF802
:10C1300017000598009001A80FC8FFF70BFE06B086
:10C1400010BD10B586B0002455208DF80400532092
:10C150008DF80500112260490DF10600FFF718FC6B
:10C16000112406E0FF220DF10600611C4254601C00
:10C17000C4B2102CF6D3132101A8FFF714FE8DF8DA
:10C1800017000598009001A80FC8FFF7E3FD06B05F
:10C1900010BD10B586B0002455208DF80400412054
:10C1A0008DF8050000BF06E04C48015D0DF106006A
:10C1B0000155601CC4B2112CF6DB132101A8FFF756
:10C1C000F2FD8DF817000598009001A80FC8FFF741
:10C1D000C1FD06B010BD10B586B0002455208DF805
:10C1E000040052208DF8050011223D490DF1060092
:10C1F000FFF7CEFB112406E0FF220DF10600611CC3
:10C200004254601CC4B2102CF6D3132101A8FFF7CE
:10C21000CAFD8DF817000598009001A80FC8FFF718
:10C2200099FD06B010BD10B586B0002455208DF8DC
:10C23000040051208DF8050010222A490DF1060056
:10C24000FFF7A6FB102406E0FF220DF10600611C9B
:10C250004254601CC4B2102CF6D3132101A8FFF77E
:10C26000A2FD8DF817000598009001A80FC8FFF7F0
:10C2700071FD06B010BD10B51B480078102875D2AE
:10C28000DFE800F00810343C444C545C646C757D6D
:10C29000858D959DFFF7C7FF13480078401C124914
:10C2A000087096E0FFF797FF0F480078401C0E4992
:10C2B00008708EE0A80D0020730D0020630D002093
:10C2C000030D0020A1020020030E0020F30D00202A
:10C2D000930D0020E20D0020D10D0020820D0020E2
:10C2E000C00D0020B00D0020F8030020FFF764FE11
:10C2F000FE480078401CFD4908706AE0FFF734FEF4
:10C30000FA480078401CF949087062E0FFF741FFE5
:10C31000F6480078401CF54908705AE0FFF711FF15
:10C32000F2480078401CF149087052E0FFF7E1FE46
:10C33000EE480078401CED4908704AE0FFF73CFEEB
:10C34000EA480078401CE949087042E0FFF70CFE1B
:10C35000E6480078401CE54908703AE0FFF7A7FE80
:10C36000E2480078401CE149087032E02DE0FFF718
:10C3700077FEDE480078401CDC49087029E0FFF7B2
:10C3800047FEDA480078401CD849087021E0FFF7E2
:10C3900013FED6480078401CD449087019E0FFF716
:10C3A000E3FDD2480078401CD049087011E0FFF747
:10C3B000B3FDCE480078401CCC49087009E0FFF777
:10C3C0000FFD0020C949087003E00020C74908702C
:10C3D00000BF00BF10BD10B586B0002455208DF8F9
:10C3E000040081208DF805000622C1490DF10600E8
:10C3F000FFF7CEFA062405E0FF210DF106000155F6
:10C40000601CC4B2102CF7D3132101A8FFF7CBFC9A
:10C410008DF817000598009001A80FC8FFF79AFC47
:10C4200006B010BD024682EA01007047F8B5054625
:10C4300000260024AE4880788DF80000AC48C07813
:10C440008DF80100AA4800798DF80200A8484079CB
:10C450008DF80300A64880780006A549897800EB8E
:10C460000140A349897800EB0120A1498978471848
:10C4700035B1012D06D0022D15D0032D29D11DE097
:10C48000012626E09DF800009DF8011008449DF863
:10C49000021008449DF80310441896484068A042D2
:10C4A00000D1012615E004216846FFF77CFC044614
:10C4B00090484068A04200D101260AE08E493846E3
:10C4C000FFF7B0FF04468B484068A04200D1012628
:10C4D00000BF00BF3046F8BD00BF8849096801EBC6
:10C4E000810202EBC101854A128802EB420201EB94
:10C4F0000240704770B5002400257E48407820B186
:10C50000012810D0022853D126E07D4800787849D0
:10C510000870FF2048708870C87008714871012049
:10C520007849087044E077480078012813D17448AE
:10C5300000786F49087001204870FFF7CDFF04466E
:10C54000200E6B498870200CC870200A08714C714D
:10C5500002206C4908702BE06A480078022826D136
:10C560000120FFF763FF0546012D03D064480078E2
:10C57000012803D10120624908700BE0624800786D
:10C58000401C6149087008460078032802DD02203B
:10C590005B4908705A48007855490870FF20487078
:10C5A0008870C8700871487103205649087000BF30
:10C5B00000BFFFF710FF70BD10B554480078012888
:10C5C00021D15348007802280DD003DC38B101286E
:10C5D00015D105E0032809D0102810D109E011E099
:10C5E000FFF749FE0EE0FFF746FE0BE0FFF743FEC4
:10C5F00008E0FFF77FFF02204549087002E0FFF7DF
:10C600003AFE00BF00BF10BD2DE9F041002000231D
:10C6100000BF13E0DFF8FCC0871C1CF80770DFF8D0
:10C62000F8C00CF80070DFF8F4C0871C1CF8077025
:10C63000DFF8ECC00CF80070471CF8B21128E9DBF9
:10C64000384F3F78DFF8E0C08CF80070374F3F7804
:10C650008CF80170364F3F788CF80270354FFF78B8
:10C660008CF80370344F3F788CF80470334F97F890
:10C6700000C02D4F87F805C0314F97F800C02A4FF2
:10C6800087F806C02F4F97F803C0274F87F807C0D9
:10C690002D4F3F78DFF890C08CF808702A4F97F83C
:10C6A00001C0214F87F809C0274F97F802C01E4FDD
:10C6B00087F80AC0244F97F803C01B4F87F80BC0B8
:10C6C000224F3F78DFF888C08CF80070214F3F7808
:10C6D0008CF80170204F3F788CF802701F4F3F7824
:10C6E0008CF803701E4F3F783CE00000F8030020F8
:10C6F000C3030020A40300207419CF0028050020E4
:10C700000C030020A1030020A2030020C903002085
:10C71000A003002073070020820D00203A070020AC
:10C72000930D002011000020A40D00201200002015
:10C73000130000200C000020190000201A00002027
:10C740001B000020140000202C0000202E030020DD
:10C75000B00D00202F030020300300203103002003
:10C76000320300208CF80470FE4F3F788CF805707F
:10C77000FD4F3F788CF80670FC4F3F788CF80770BF
:10C78000FB4F3F788CF80870FA4F3F788CF80970AF
:10C79000F94F3F788CF80A70F84F3F788CF80B709F
:10C7A000F74F3F788CF80C70F64F3F788CF80D708F
:10C7B000F54F3F788CF80E70F44F3F788CF80F707F
:10C7C000F34F3F78DFF8CCC38CF80070F24F3F781E
:10C7D0008CF80170F14F3F788CF80270F04F3F7881
:10C7E0008CF80370EF4F3F788CF80470EE4F3F7871
:10C7F0008CF80570ED4F3F788CF80670EC4F3F7861
:10C800008CF80770EB4F3F788CF80870EA4F97F878
:10C8100000C0E04F87F809C0E74F97F800C0DD4F30
:10C8200087F80AC0E54F3F78DFF868C38CF80B70D3
:10C83000E34F97F800C0D74F87F80CC0E14F3F781F
:10C84000DFF850C38CF80D70DF4F97F800C0D14F60
:10C8500087F80EC0DD4F3F78DFF838C38CF80F70D3
:10C86000DB4F3F788CF81070DA4F3F78DFF868C301
:10C870008CF80070D94F3F788CF80170D84F3F7812
:10C880008CF80270D74F3F788CF80370D64F3F7802
:10C890008CF80470D54F3F788CF80570D44F3F78F2
:10C8A0008CF80670D34F3F788CF8077000278CF80F
:10C8B00008708CF80970D04F3F883F128CF80A70CE
:10C8C000CD4F3F788CF80B70CC4F3F788CF80C70C4
:10C8D000CB4F3F788CF80D70CA4F3F788CF80E70B4
:10C8E000C94F3F788CF80F70C84F3F788CF81070A4
:10C8F000C74F3F78032F02D1C54F3F7801E0C54FA6
:10C900003F78DFF814C38CF80070C44F3F788CF880
:10C910000170C34F3F788CF80270C24F3F788CF89B
:10C920000370C14F3F788CF80470C04F3F788CF88B
:10C930000570BF4F3F788CF80670BE4F3F788CF87B
:10C940000770BD4F3F788CF80870BC4F3F788CF86B
:10C950000970BB4F3F788CF80A70BA4F3F788CF85B
:10C960000B70B94F3F788CF80C70B84F3F788CF84B
:10C970000D70B74F3F788CF80E70B64F3F788CF83B
:10C980000F70B54F3F7887F001078CF81070B34FE8
:10C990003F78DFF8CCC28CF80070B24F3F788CF84B
:10C9A0000170B14F3F788CF80270B04F3F788CF82F
:10C9B0000370AF4F3F788CF80470AE4F3F788CF81F
:10C9C0000570AD4F3F788CF80670AC4F3F788CF80F
:10C9D0000770AB4F3F788CF80870AA4F3F788CF8FF
:10C9E0000970A94F3F788CF80A70A84F3F788CF8EF
:10C9F0000B70A74F3F788CF80C70A64F3F788CF8DF
:10CA00000D70A54F3F788CF80E70A44F3F788CF8CE
:10CA10000F70A34F3F78DFF88CC28CF80070A24FE4
:10CA20003F788CF80170A14F3F788CF80270A04FCE
:10CA30003F788CF803709F4F3F788CF804709E4FBE
:10CA40003F788CF805709D4F3F788CF806709C4FAE
:10CA50003F788CF807709B4F3F788CF808709A4F9E
:10CA60003F788CF80970994F3F788CF80A70984F8E
:10CA70003F788CF80B70974F3F788CF80C70964F7E
:10CA80003F788CF80D70954F3F788CF80E70944F6E
:10CA90003F788CF80F70934F3F88DFF84CC2ACF8AA
:10CAA0000670924F3F88ACF80070914F3F88ACF809
:10CAB0000870904F3F88ACF802708F4F3F88ACF8F9
:10CAC0000A708E4F3F88ACF804708D4F3F88ACF8E9
:10CAD0000E708C4F3F88ACF80C708B4F3F78DFF8AE
